:100000000C9469000C9491000C9491000C9463037F
:100010000C942A030C9491000C9491000C94910080
:100020000C9491000C9491000C9491000C9491000C
:100030000C9491000C9491000C9491000C949100FC
:100040000C94C8060C9491000C9493090C94C50967
:100050000C9491000C9491000C9491000C949100DC
:100060000C9491000C949100000000090003020020
:10007000000405080000000000000000000000016E
:10008000020408102040800102040810200102042C
:100090000810204080400404040404040404020204
:1000A000020202020303030303030202030000002F
:1000B0000023002600290000000000250028002B56
:1000C0000000000000240027002A0000A603F50914
:1000D000AC0311241FBECFEFD4E0DEBFCDBF11E0D3
:1000E000A0E0B1E0E2E4F6E102C005900D92AE348A
:1000F000B107D9F722E0AEE4B1E001C01D92AF35FF
:10010000B207E1F710E0C8E6D0E004C02197FE0195
:100110000E94F80AC636D107C9F70E94A70A0C94B4
:10012000140B0C9400000C94060BA8950E94120767
:100130006093520170935301809354019093550141
:100140008091520190915301A0915401B0915501B9
:1001500040914E0150914F016091500170915101B9
:10016000841B950BA60BB70B84369105A105B10531
:1001700060F58091520190915301A0915401B0918A
:10018000550140914E0150914F0160915001709185
:100190005101841B950BA60BB70B803D9740A10521
:1001A000B10598F41092560180915201909153013B
:1001B000A0915401B091550180934E0190934F014D
:1001C000A0935001B0935101089581E080935601AE
:1001D000EBCF88B188B968EE73E080E090E00E94D0
:1001E000430788B1886388B988E19FE00FB6F89427
:1001F000A895809360000FBE90936000FFCFCF92D0
:10020000DF92EF92FF920F931F93CF93DF93CDB7BF
:10021000DEB728970FB6F894DEBF0FBECDBFA89506
:1002200006E111E0CE0101967C015EE1C52E51E0B0
:10023000D52EF80180810E5F1F4F0E944A08F701FA
:100240008130910569F591838083F2E0EF0EF11C16
:10025000C016D10671F789819A81880F991F2B8169
:100260003C81820F931F880F991F2D813E81820F41
:10027000931F880F991F2F813885820F931F8093BA
:10028000250128960FB6F894DEBF0FBECDBFDF91D3
:10029000CF911F910F91FF90EF90DF90CF90089535
:1002A00011821082D2CFA8958091A0019091A101D6
:1002B0002091A2013091A3018217930769F121E0F7
:1002C00020939D012091A2013091A30128173907A5
:1002D0007CF42091A2013091A301821B930B909397
:1002E0005F0180935E0180911F0180935901089501
:1002F0002091A2013091A30182179307C4F72091A6
:10030000A2013091A301281B390B30935F01209388
:100310005E0180911E01E9CF80912001E6CF0F930D
:100320001F93CF93DF93162FD42FC22FA895682F3A
:1003300090E080E00E949300612F81E090E00E94B5
:1003400093006D2F82E090E00E9493006C2F83E079
:1003500090E00E949300602F84E090E00E94930060
:1003600069E685E090E0DF91CF911F910F910C94A9
:100370009300CF93DF9385E090E00E94FE0A8936D8
:1003800001F161E090E080E00E94930061EF81E084
:1003900090E00E94930061E382E090E00E9493006D
:1003A00062E383E090E00E94930063E384E090E0E6
:1003B0000E94930069E685E090E0DF91CF910C9474
:1003C0009300A89590E080E00E94FE0A90E0909350
:1003D00022018093210181E090E00E94FE0A809337
:1003E000240182E090E00E94FE0AC82F83E090E0A2
:1003F0000E94FE0A4C2F4053550B94E6949FE00157
:10040000959FD00D11245AE0859FC00DD11D112458
:10041000C05ED14084E090E00E94FE0A8053990BB8
:10042000C80FD91FD0932C01C0932B0180912B01B1
:1004300090912C019093A3018093A2018091A2013D
:100440009091A3019093A1018093A001DF91CF919E
:100450000895A8958091A2019091A30197FD0DC0E8
:100460002091A2013091A30180912B0190912C0148
:100470008217930714F043980895439A0895A89516
:1004800088B190E1892788B980912101909122015A
:1004900081309105A9F532990BC0319909C080913D
:1004A000A2019091A30101969093A3018093A201D0
:1004B00030990BC01D9909C08091A2019091A301B0
:1004C00001969093A3018093A2011C990BC01B99E4
:1004D00009C08091A2019091A30101979093A3017B
:1004E0008093A2011A990BC0199909C08091A201A9
:1004F0009091A30101979093A3018093A201089585
:100500008230910509F04EC0329909C08091A20154
:100510009091A30101969093A3018093A201319938
:1005200009C08091A2019091A30101969093A3012B
:100530008093A201309909C08091A2019091A301FA
:1005400001969093A3018093A2011D9909C0809107
:10055000A2019091A30101969093A3018093A2011F
:100560001C9909C08091A2019091A30101979093D9
:10057000A3018093A2011B9909C08091A2019091CF
:10058000A30101979093A3018093A2011A99ACCF84
:100590008091A2019091A30101979093A301809370
:1005A000A201A2CF039709F0AACF329909C0809186
:1005B000A2019091A30101979093A3018093A201BE
:1005C000319909C08091A2019091A3010196909365
:1005D000A3018093A201309909C08091A20190915A
:1005E000A30101979093A3018093A2011D9909C0D3
:1005F0008091A2019091A30101969093A301809311
:10060000A2011C9909C08091A2019091A3010197B8
:100610009093A3018093A2011B9909C08091A2012C
:100620009091A30101969093A3018093A2011A993E
:1006300009C08091A2019091A30101979093A30119
:100640008093A20119995BCF8091A2019091A3019F
:10065000019651CF1F920F920FB60F9211242F9334
:100660003F934F935F936F937F938F939F93AF933A
:10067000BF93EF93FF930E949500809156018823CA
:1006800089F0329903C081E080939C01319903C0C5
:1006900081E080939B01309903C081E080939A01AF
:1006A0000E943F02FF91EF91BF91AF919F918F9177
:1006B0007F916F915F914F913F912F910F900FBE5E
:1006C0000F901F9018951F920F920FB60F92112442
:1006D0002F933F934F935F936F937F938F939F934A
:1006E000AF93BF93EF93FF930E94950080915601C3
:1006F0008823D9F01D9903C081E0809399011C994A
:1007000003C081E0809398011B9903C081E080932E
:1007100097011A9903C081E080939601199903C04B
:1007200081E0809395010E943F02FF91EF91BF917C
:10073000AF919F918F917F916F915F914F913F9179
:100740002F910F900FBE0F901F90189540E063E01F
:1007500084EA91E00C94980684EA91E00C946E0689
:100760000F93CF93DF93A89580916301082E000C1F
:10077000990B209127012817190639F082EC91E096
:100780000E948D0880936301EFCF49E050E069E754
:1007900071E082EC91E00E947D0A81E080936E011D
:1007A0002091790180912501082E000C990B2817C2
:1007B000190609F044C010926E01E9E7F1E0AFE6D6
:1007C000B1E081918D93EF012197188281E0E438A7
:1007D000F807B9F780917201282F30E03093220199
:1007E0002093210160917301609324014091740171
:1007F0002091750100917601C42FC053DD0B94E662
:100800009C9FF0019D9FF00D1124DAE02D9FE00DDB
:10081000F11D1124E05EF140C02FC053DD0BEC0F41
:10082000FD1FF0932C01E0932B01E0912B01F0913F
:100830002C01F093A301E093A2010E948F01DF91AC
:10084000CF910F910895EF920F93A895E5E6F1E00F
:100850009091270190838183809125018283638316
:10086000448325830683E7828091260180875A9AF4
:10087000459A62E370E080E090E00E94430749E01F
:1008800050E065E671E082EC91E00E94220A62E3AA
:1008900070E080E090E00E9443075A9845980F91DD
:1008A000EF900895A8958093070160930801409305
:1008B0000901E0E0F1E02AE031E080E09191890F68
:1008C0002E173F07D9F780935801809580935701E1
:1008D00080930A015C9A459A62E370E080E090E0C0
:1008E0000E9443074BE050E060E071E084EA91E051
:1008F0000E94220A62E370E080E090E00E944307D9
:100900005C9845980895CF93DF930FB6F894A89517
:1009100080916000886180936000109260000FBE3B
:1009200084B184B987B1886387B9529A85B18F63DE
:1009300085B988B1876088B98BB1806E8BB98EE339
:1009400080936B0087E080936C00E8E6F0E08081A4
:10095000816080838081826080830E94FF000E948A
:10096000B90126E040E855E260E070E082EC91E0F9
:100970000E94370940E855E260E070E084EA91E0C7
:100980000E94B00682E090E00E94FE0AD82F83E029
:1009900090E00E94FE0AC82F84E090E00E94FE0AC8
:1009A0004D2F6C2F0E94520488B188B97894DF9142
:1009B000CF910895EF92FF920F931F93CF93DF9300
:1009C000C82FD42F122FF02EA89580910B018C13D5
:1009D0000AC022E7E22E05E42EE44C2F60912A01A2
:1009E0008DE10E94230480910C018C131CC0809126
:1009F000230190919D01992309F464C0E0902401A2
:100A000000915E01209159014C2F609129010E94B3
:100A100023048091A2019091A3019093A10180935E
:100A2000A00110929D0180910D018C1337C02F2DD4
:100A30000F2C000C330B2053310944E6429FC001B8
:100A4000439F900D1124212F012E000C330B2053B6
:100A500031096AE0629FA001639F500D1124840F49
:100A6000951F2D2F0D2E000C330B20533109820FB3
:100A7000931F90939F0180939E019093A301809375
:100A8000A2018091A2019091A3019093A101809372
:100A9000A0014F2D612F8D2F0E94520480910E01D5
:100AA0008C1306C010925D0110925C0110925B01E4
:100AB00080910F018C1310C00E94B0030E94B901F5
:100AC0000E94E90098E6E92E03E42EE44C2F6091A1
:100AD0002A010E942304A7CF809110018C130AC021
:100AE00087E4E82E0EE42FE440E5609129018CE1D3
:100AF0000E942304809113018C1711F3DF91CF9191
:100B00001F910F91FF90EF9008950F93CF93DF9374
:100B1000A89580918C0190912501891721F09091E1
:100B2000240189132FC080919301082E000C990B8A
:100B3000209126012817190629F510926E01ECE87C
:100B4000F1E0A3E8B1E081918D93EF012197188244
:100B500081E0E639F807B9F7609185016093640197
:100B60008091860180935A01009187010093600172
:100B70002091880120936101409189014093620195
:100B80000E94DA04DF91CF910F910895A89580918A
:100B90006301082E000C990B2091270128171906D4
:100BA00079F41092630148E050E06CE871E082EC67
:100BB00091E00E947D0A81E080936E010C9485058E
:100BC00010926E01089584B7877F84BF8091600082
:100BD000886180936000A89582EC91E00E94730880
:100BE00018161906A4F482EC91E00E948D088093F7
:100BF0006301082E000C990B209127012817190674
:100C000031F488B190E2892788B90E94C6050E9414
:100C100029020C9453010895EF92FF920F931F93B2
:100C2000CF93DF93DC015296ED90FC905397E11443
:100C3000F10479F481E090E013969C938E931297DF
:100C400090E080E0DF91CF911F910F91FF90EF90A6
:100C500008951D96ED91FC911E971C968C911C9702
:100C6000982F90950FB754962C915497122F12707D
:100C700021FD6095F8942081112319F1282B208300
:100C8000E7012197F1F728E0462F50E0308160FF1F
:100C90001AC0382B3083E7012197F1F7BA01759517
:100CA0006795215089F7112381F080818923808302
:100CB0000FBF52968D919C910197F1F781E090E0E2
:100CC000C1CF2923DCCF3923E5CF9081892BEFCF0A
:100CD00090E080E008958FEF9FEF089508951F93AF
:100CE000CF93DF93EC01162F6C896695617081E0DC
:100CF0006827812F0E941C0861E0812F0E94E00775
:100D0000812F90E0FC01E158FF4FE491EC87FC015A
:100D1000EA56FF4FE491F0E0EE0FFF1FE954FF4F5A
:100D2000859194919E878D87DF91CF911F91089532
:100D3000FC011382128288EE93E0A0E0B0E084838D
:100D40009583A683B78381E391E091838083138A9F
:100D5000128A848940FB81F9848BCF010C946F0641
:100D6000CF93DF93EC019A01AB0160E874E88EE168
:100D700090E00E94D90A2430310538F0235031091F
:100D80003B8B2A8BDF91CF91089521E030E0F8CFA3
:100D90001F920F920FB60F9211242F933F938F93B0
:100DA0009F93AF93BF938091BA019091BB01A091A3
:100DB000BC01B091BD013091B90126E0230F2D3760
:100DC00058F50296A11DB11D2093B9018093BA0177
:100DD0009093BB01A093BC01B093BD018091BE0173
:100DE0009091BF01A091C001B091C1010196A11DD8
:100DF000B11D8093BE019093BF01A093C001B09339
:100E0000C101BF91AF919F918F913F912F910F9011
:100E10000FBE0F901F90189529E8230F0396A11D70
:100E2000B11DD2CF2FB7F8946091BA017091BB0178
:100E30008091BC019091BD012FBF08953FB7F894F8
:100E40008091BE019091BF01A091C001B091C101FC
:100E500026B5A89B05C02F3F19F00196A11DB11D15
:100E60003FBFBA2FA92F982F8827BC01CD01620F51
:100E7000711D811D911D43E0660F771F881F991F0B
:100E80004A95D1F708958F929F92AF92BF92CF92D9
:100E9000DF92EF92FF926B017C010E941E074B01D3
:100EA0005C01C114D104E104F104E9F00E94B60A26
:100EB0000E941E07681979098A099B09683E7340D8
:100EC0008105910570F321E0C21AD108E108F1080B
:100ED00088EE880E83E0981EA11CB11CC114D104B9
:100EE000E104F10429F7FF90EF90DF90CF90BF90DD
:100EF000AF909F908F900895789484B5826084BD60
:100F000084B5816084BD85B5826085BD85B581600D
:100F100085BDEEE6F0E0808181608083E1E8F0E06D
:100F20001082808182608083808181608083E0E89C
:100F3000F0E0808181608083E1EBF0E0808184607B
:100F40008083E0EBF0E0808181608083EAE7F0E07D
:100F500080818460808380818260808380818E7FB5
:100F600080838081806880831092C10008958430DE
:100F700081F028F4823099F08330A9F00895883008
:100F8000A9F08930C9F08530B1F4809180008F7D5F
:100F900003C0809180008F7780938000089584B58E
:100FA0008F7784BD089584B58F7DFBCF8091B0008D
:100FB0008F778093B00008958091B0008F7DF9CF36
:100FC000CF93DF9390E0FC01E158FF4F24918A56C4
:100FD0009F4FFC0184918823C9F090E0880F991FEE
:100FE000FC01EF53FF4FA591B491FC01E954FF4F71
:100FF000C591D49161110DC09FB7F8948C91209543
:1010000082238C938881282328839FBFDF91CF91EF
:101010000895623051F49FB7F8943C91822F8095E7
:1010200083238C93E8812E2BEFCF8FB7F894EC912C
:101030002E2B2C938FBFEACF1F93CF93DF93282FB4
:1010400030E0F901E859FF4F8491F901E158FF4F71
:10105000D491F901EA56FF4FC491CC23A9F0162F81
:1010600081110E94B707EC2FF0E0EE0FFF1FE9544B
:10107000FF4FA591B4918FB7F894EC91111108C06E
:10108000D095DE23DC938FBFDF91CF911F91089520
:10109000DE2BF8CFCF93DF93282F30E0F901E8590A
:1010A000FF4F8491F901E158FF4FD491F901EA56BD
:1010B000FF4FC491CC23A1F081110E94B707EC2F00
:1010C000F0E0EE0FFF1FE355FF4FA591B491EC91B7
:1010D000ED2381E090E009F480E0DF91CF91089565
:1010E00080E090E0FACFFC01918D228D892F90E075
:1010F000805C9F4F821B91098F7399270895FC0193
:10110000918D828D981731F0828DE80FF11D858DBC
:1011100090E008958FEF9FEF0895FC01918D828DEF
:10112000981761F0A28DAE0FBF2FB11D5D968C9107
:10113000928D9F5F9F73928F90E008958FEF9FEF46
:1011400008958BEE99E0892B49F080E090E0892B9F
:1011500029F00E94EB0981110C9400000895FC0114
:10116000A48DA80FB92FB11DA35ABF4F2C91848D08
:1011700090E001968F739927848FA689B7892C9365
:10118000A089B1898C9180648C93938D848D981300
:1011900006C00288F389E02D80818F7D80830895C9
:1011A000CF93DF93EC01888D8823B9F0AA89BB899E
:1011B000E889F9898C9185FD03C0808186FD0DC089
:1011C0000FB607FCF7CF8C9185FFF2CF808185FFAA
:1011D000EDCFCE010E94AF08E9CFDF91CF91089506
:1011E000EF92FF920F931F93CF93DF93EC0181E077
:1011F000888F9B8D8C8D981316C0E889F989808122
:1012000085FF11C0EE89FF896083E889F9898081B3
:101210008064808381E090E0DF91CF911F910F91F6
:10122000FF90EF900895F62E0B8D10E00F5F1F4F8B
:101230000F731127E02E8C8D8E110CC00FB607FC9A
:10124000FACFE889F989808185FFF5CFCE010E9428
:10125000AF08F1CFEB8DEC0FFD2FF11DE35AFF4FDF
:10126000F0820B8FEA89FB8980818062D2CFCF9296
:10127000DF92EF92FF921F93CF93DF93EC016A010D
:101280007B01122F60E874E88EE190E0A7019601DF
:101290000E94B70A215031094109510956954795D5
:1012A00037952795E889F98982E08083211580E1C7
:1012B000380798F0E889F989108260E472E48FE0D9
:1012C00090E0A70196010E94B70A21503109410917
:1012D00051095695479537952795EC85FD853083BF
:1012E000EE85FF852083188EEC89FD891083EA89BD
:1012F000FB89808180618083EA89FB8980818860A5
:101300008083EA89FB89808180688083EA89FB8900
:1013100080818F7D8083DF91CF911F91FF90EF902F
:10132000DF90CF9008951F920F920FB60F92112465
:101330002F938F939F93EF93FF93E091D201F091BE
:10134000D3018081E091D801F091D90182FD1BC0C9
:1013500090818091DB018F5F8F732091DC01821778
:1013600041F0E091DB01F0E0EE53FE4F958F80936A
:10137000DB01FF91EF919F918F912F910F900FBE05
:101380000F901F9018958081F4CF1F920F920FB687
:101390000F9211242F933F934F935F936F937F93FB
:1013A0008F939F93AF93BF93EF93FF9382EC91E062
:1013B0000E94AF08FF91EF91BF91AF919F918F91E4
:1013C0007F916F915F914F913F912F910F900FBE41
:1013D0000F901F90189582EC91E00E94730821E015
:1013E000892B09F420E0822F0895E2ECF1E01382CA
:1013F000128288EE93E0A0E0B0E084839583A68318
:10140000B78381E491E09183808385EC90E09587B8
:10141000848784EC90E09787868780EC90E0918BBE
:10142000808B81EC90E0938B828B82EC90E0958BAB
:10143000848B86EC90E0978B868B118E128E138EA8
:10144000148E0895AF92BF92CF92DF92EF92FF92E7
:101450000F931F93CF93DF936C017B018B01040FDC
:10146000151FEB015E01AE18BF08C017D10759F078
:101470006991D601ED91FC910190F081E02DC601BA
:101480000995892B79F7C501DF91CF911F910F91B4
:10149000FF90EF90DF90CF90BF90AF9008950F93A3
:1014A0001F93CF93DF93EC010E941207688779871F
:1014B0008A879B87E881F9810680F781E02DCE013C
:1014C000099597FF15C00E941207088519852A857E
:1014D0003B85601B710B820B930B0C811D812E8150
:1014E0003F81601771078207930720F38FEF9FEF0B
:1014F000DF91CF911F910F910895AF92BF92CF923C
:10150000DF92EF92FF920F931F93CF93DF935C01D3
:101510007B018B01040F151FEB016E01CE18DF0854
:10152000C017D10739F0C5010E944F0A97FD02C0CC
:101530008993F3CFC601DF91CF911F910F91FF9057
:10154000EF90DF90CF90BF90AF90089508950E94E4
:101550007C070E94A60A0E948304C1EAD8E00E9488
:10156000E3052097E1F30E94A108F9CF0895A1E2D5
:101570001A2EAA1BBB1BFD010DC0AA1FBB1FEE1F0D
:10158000FF1FA217B307E407F50720F0A21BB30B58
:10159000E40BF50B661F771F881F991F1A9469F7D4
:1015A00060957095809590959B01AC01BD01CF0130
:1015B0000895052E97FB1EF400940E94F00A57FD33
:1015C00007D00E94B70A07FC03D04EF40C94F00A2F
:1015D00050954095309521953F4F4F4F5F4F08955F
:1015E00090958095709561957F4F8F4F9F4F08958F
:1015F000EE0FFF1F0590F491E02D0994F999FECFAD
:1016000092BD81BDF89A992780B50895262FF99942
:10161000FECF1FBA92BD81BD20BD0FB6F894FA9AD5
:10162000F99A0FBE0196089510E0C8E6D0E004C014
:10163000FE010E94F80A2196C936D107C9F7F8942D
:02164000FFCFDA
:101642001B010006A10100000000000102030405C5
:10165200060708090A0B08000700060005002B2DE3
:101662003D05001DF1FF5D5B050615E70300000067
:10167200000C06220A68066B066B060B06000000C9
:0E16820000F008220A73088D087F08D00800C7
:0200000002C03C
:00000001FF