:100000000C9469000C9491000C9491000C94D00213
:100010000C9497020C9491000C9491000C94910014
:100020000C9491000C9491000C9491000C9491000C
:100030000C9491000C9491000C9491000C949100FC
:100040000C9459070C9491000C9436060C94680695
:100050000C9491000C9491000C9491000C949100DC
:100060000C9491000C949100000000090003020020
:10007000000405080000000000000000000000016E
:10008000020408102040800102040810200102042C
:100090000810204080400404040404040404020204
:1000A000020202020303030303030202030000002F
:1000B0000023002600290000000000250028002B56
:1000C0000000000000240027002A00001303980607
:1000D000190311241FBECFEFD4E0DEBFCDBF11E066
:1000E000A0E0B1E0E2EBF2E102C005900D92AE3487
:1000F000B107D9F722E0AEE4B1E001C01D92A3340C
:10010000B207E1F710E0C8E6D0E004C02197FE0195
:100110000E944609C636D107C9F70E944A070C94C7
:100120004C090C9400000E94A30760935201709345
:100130005301809354019093550180915201909105
:100140005301A0915401B091550140914E0150913D
:100150004F016091500170915101841B950BA60BCA
:10016000B70BC297A105B105C8F4809152019091D7
:100170005301A0915401B091550140914E0150910D
:100180004F016091500170915101841B950BA60B9A
:10019000B70B803D9740A105B10518F081E0809331
:1001A00056018091520190915301A0915401B09158
:1001B000550180934E0190934F01A0935001B0934D
:1001C00051010895CF92DF92EF92FF920F931F9308
:1001D000CF93DF93CDB7DEB728970FB6F894DEBF85
:1001E0000FBECDBF06E111E0CE0101967C015EE1BC
:1001F000C52E51E0D52EF80180810E5F1F4F0E9461
:10020000DB08F7018130910569F591838083F2E085
:10021000EF0EF11CC016D10671F789819A81880F03
:10022000991F2B813C81820F931F880F991F2D816D
:100230003E81820F931F880F991F2F813885820F6F
:10024000931F8093250128960FB6F894DEBF0FBE4A
:10025000CDBFDF91CF911F910F91FF90EF90DF9075
:10026000CF90089511821082D2CF84B184B987B122
:10027000886387B9529A85B18F6385B988B18760E1
:1002800088B98BB1806E8BB98EE380936B0087E069
:1002900080936C00E8E6F0E080818160808380815B
:1002A0008260808378942EE040E855E260E070E060
:1002B0008DE991E00E94DA0540E855E260E070E0E7
:1002C00088E891E00E94FE040E94E20080912A01E9
:1002D00090912B019093870180938601089520913E
:1002E00086013091870180912A0190912B01281776
:1002F0003907E9F041E040938501821793075CF4E8
:10030000281B390B30935F0120935E0180911F0100
:1003100080935901089528173907E4F7821B930B3E
:1003200090935F0180935E0180911E01F1CF8091D7
:100330002001EECF80912A0190912B0197FD09C0F9
:1003400020912C0130912D012817390714F0439882
:100350000895439A81E080935D0180912A019091F4
:100360002B0190935C0180935B01089510925601DC
:1003700088B190E1892788B980912101909122016B
:10038000019709F03FC0809184018823D9F08091C2
:100390002A0190912B01019790932B0180932A01C0
:1003A00010928401809182018823E1F080912A01DA
:1003B00090912B01019790932B0180932A01109229
:1003C0008201089580918301882361F380912A013D
:1003D00090912B01019690932B0180932A0110920A
:1003E0008301E0CF809181018823E1F180912A018E
:1003F00090912B01019690932B0180932A011092EA
:10040000810108958091210190912201029759F56F
:1004100080918001882389F080917F01882369F091
:1004200080912A0190912B01019690932B0180934A
:100430002A011092800110927F0180917E01882311
:1004400089F080917D01882369F080912A01909143
:100450002B01019790932B0180932A0110927E012A
:1004600010927D01089580912101909122010397BE
:1004700021F380912101909122010497B1F48091A0
:100480008001882379F380917F01882359F380913B
:100490002A0190912B01019690932B0180932A01C0
:1004A0001092800110927F01089580912101909116
:1004B00022010597B9F680918001882359F0809137
:1004C0002A0190912B01019690932B0180932A0190
:1004D0001092800180917F01882359F080912A0138
:1004E00090912B01019690932B0180932A011092F9
:1004F0007F0180917E01882359F080912A0190919B
:100500002B01019790932B0180932A0110927E0179
:1005100080917D01882309F4A5CF80912A019091D3
:100520002B01019790932B0180932A0199CF1F9261
:100530000F920FB60F9211242F933F934F935F9317
:100540006F937F938F939F93AF93BF93EF93FF939B
:100550000E94930080915601882389F0329903C04C
:1005600081E080938401319903C081E0809383010D
:10057000309903C081E0809382010E94B601FF910F
:10058000EF91BF91AF919F918F917F916F915F910B
:100590004F913F912F910F900FBE0F901F90189584
:1005A0001F920F920FB60F9211242F933F934F93E8
:1005B0005F936F937F938F939F93AF93BF93EF93CB
:1005C000FF930E949300809156018823D9F01D99D2
:1005D00003C081E0809381011C9903C081E0809376
:1005E00080011B9903C081E080937F011A9903C0A9
:1005F00081E080937E01199903C081E080937D01A1
:100600000E94B601FF91EF91BF91AF919F918F91A1
:100610007F916F915F914F913F912F910F900FBEFE
:100620000F901F90189540E063E088E891E00C94EB
:10063000E60488E891E00C94BC04EF920F93E4E6A2
:10064000F1E090912601908381838091250182833E
:100650006383448325830683E7825A9A459A6AE036
:1006600070E080E090E00E94D40748E050E064E64B
:1006700071E08DE991E00E94C5066AE070E080E0DB
:1006800090E00E94D4075A9845980F91EF900895F2
:10069000EF920F9340910B018091230190915D01A6
:1006A000E12C00E020E060912801911102C06091EE
:1006B00029010E941D030F91EF9008958093070177
:1006C0006093080140930901E0E0F1E02AE031E0A5
:1006D00080E09191890F2E173F07D9F78093580139
:1006E00080958093570180930A015C9A459A6AE04D
:1006F00070E080E090E00E94D4074BE050E060E0C2
:1007000071E088E891E00E94C50662E370E080E055
:1007100090E00E94D4075C9845980895EF92FF926C
:100720000F931F93CF93DF93C82FD42F122FF02E48
:1007300080910B018C130BC080915D01882309F41B
:1007400043C080915B0190915C010E9448038091BD
:100750000C018C131BC0809123019091850199237A
:10076000F1F1E090240100915E01209159014C2F9C
:10077000609128010E941D0380912A0190912B0114
:1007800090938701809386011092850180910D01DD
:100790008C1305C04F2D612F8D2F0E945E03809119
:1007A00010018C130AC087E4E82E0EE42FE440E524
:1007B000609128018CE10E941D03DF91CF911F9170
:1007C0000F91FF90EF90089522E7E22E05E42EE4CA
:1007D0004C2F609128018DE10E941D03B8CF98E64F
:1007E000E92E03E42EE44C2F609129010E941D03A1
:1007F000CDCF0F93CF93DF93809175019091250119
:10080000891721F090912401891325C010926C0161
:10081000E5E7F1E0ADE6B1E081918D93EF0121973D
:10082000188281E0ED37F807B9F760916F016093A6
:1008300063018091700180935A01009171010093CE
:1008400060012091720120936101409173014093F6
:1008500062010E948E03DF91CF910F910895082EBF
:10086000000C990B209126012817190629F08DE913
:1008700091E00E943005F3CF48E050E065E771E079
:100880008DE991E00E94200781E080936C010C9437
:10089000F9038DE991E00E941605089734F088B1BC
:1008A00090E2892788B90E942F040E949A010C9433
:1008B0006F010895EF92FF920F931F93CF93DF93F1
:1008C000DC015296ED90FC905397E114F10479F419
:1008D00081E090E013969C938E93129790E080E0D5
:1008E000DF91CF911F910F91FF90EF9008951D968A
:1008F000ED91FC911E971C968C911C97982F9095CA
:100900000FB754962C915497122F127021FD6095B9
:10091000F8942081112319F1282B2083E7012197D6
:10092000F1F728E0462F50E0308160FF1AC0382BE5
:100930003083E7012197F1F7BA017595679521504A
:1009400089F7112381F08081892380830FBF52961C
:100950008D919C910197F1F781E090E0C1CF29231F
:10096000DCCF3923E5CF9081892BEFCF90E080E079
:1009700008958FEF9FEF089508951F93CF93DF930E
:10098000EC01162F6C896695617081E06827812FD4
:100990000E94AD0861E0812F0E947108812F90E0D4
:1009A000FC01E158FF4FE491EC87FC01EA56FF4F50
:1009B000E491F0E0EE0FFF1FE954FF4F8591949111
:1009C0009E878D87DF91CF911F910895FC0113823F
:1009D000128288EE93E0A0E0B0E084839583A68342
:1009E000B78382E391E091838083138A128A84899A
:1009F00040FB81F9848BCF010C94BD04CF93DF932E
:100A0000EC019A01AB0160E874E88EE190E00E948D
:100A100027092430310538F0235031093B8B2A8BCC
:100A2000DF91CF91089521E030E0F8CFFC01918D66
:100A3000228D892F90E0805C9F4F821B91098F73DC
:100A400099270895FC01918D828D981731F0828D40
:100A5000E80FF11D858D90E008958FEF9FEF0895C9
:100A6000FC01918D828D981761F0A28DAE0FBF2F82
:100A7000B11D5D968C91928D9F5F9F73928F90E0D8
:100A800008958FEF9FEF08958EE896E0892B49F047
:100A900080E090E0892B29F00E948E0681110C9451
:100AA00000000895FC01A48DA80FB92FB11DA35A11
:100AB000BF4F2C91848D90E001968F739927848F7E
:100AC000A689B7892C93A089B1898C9180648C9375
:100AD000938D848D981306C00288F389E02D808160
:100AE0008F7D80830895CF93DF93EC01888D8823D9
:100AF000B9F0AA89BB89E889F9898C9185FD03C081
:100B0000808186FD0DC00FB607FCF7CF8C9185FF65
:100B1000F2CF808185FFEDCFCE010E945205E9CF53
:100B2000DF91CF910895EF92FF920F931F93CF9390
:100B3000DF93EC0181E0888F9B8D8C8D981316C01C
:100B4000E889F989808185FF11C0EE89FF8960837A
:100B5000E889F98980818064808381E090E0DF9179
:100B6000CF911F910F91FF90EF900895F62E0B8D6E
:100B700010E00F5F1F4F0F731127E02E8C8D8E1129
:100B80000CC00FB607FCFACFE889F989808185FF90
:100B9000F5CFCE010E945205F1CFEB8DEC0FFD2F6A
:100BA000F11DE35AFF4FF0820B8FEA89FB898081A8
:100BB0008062D2CFCF92DF92EF92FF921F93CF93BA
:100BC000DF93EC016A017B01122F60E874E88EE18B
:100BD00090E0A70196010E940509215031094109C1
:100BE00051095695479537952795E889F98982E007
:100BF0008083211580E1380798F0E889F98910820F
:100C000060E472E48FE090E0A70196010E9405097C
:100C10002150310941095109569547953795279536
:100C2000EC85FD853083EE85FF852083188EEC8969
:100C3000FD891083EA89FB89808180618083EA894C
:100C4000FB89808188608083EA89FB898081806854
:100C50008083EA89FB8980818F7D8083DF91CF91BA
:100C60001F91FF90EF90DF90CF9008951F920F9209
:100C70000FB60F9211242F938F939F93EF93FF93AF
:100C8000E091AD01F091AE018081E091B301F0916E
:100C9000B40182FD1BC090818091B6018F5F8F737C
:100CA0002091B701821741F0E091B601F0E0E356E0
:100CB000FE4F958F8093B601FF91EF919F918F9199
:100CC0002F910F900FBE0F901F9018958081F4CF39
:100CD0001F920F920FB60F9211242F933F934F93B1
:100CE0005F936F937F938F939F93AF93BF93EF9394
:100CF000FF938DE991E00E945205FF91EF91BF9122
:100D0000AF919F918F917F916F915F914F913F91A3
:100D10002F910F900FBE0F901F9018958DE991E0C5
:100D20000E94160521E0892B09F420E0822F089506
:100D3000EDE9F1E01382128288EE93E0A0E0B0E0EA
:100D400084839583A683B78382E491E09183808333
:100D500085EC90E09587848784EC90E09787868780
:100D600080EC90E0918B808B81EC90E0938B828B78
:100D700082EC90E0958B848B86EC90E0978B868B51
:100D8000118E128E138E148E0895AF92BF92CF9251
:100D9000DF92EF92FF920F931F93CF93DF936C013B
:100DA0007B018B01040F151FEB015E01AE18BF081C
:100DB000C017D10759F06991D601ED91FC910190CE
:100DC000F081E02DC6010995892B79F7C501DF91E6
:100DD000CF911F910F91FF90EF90DF90CF90BF9038
:100DE000AF9008950F931F93CF93DF93EC010E9470
:100DF000A307688779878A879B87E881F9810680BE
:100E0000F781E02DCE01099597FF15C00E94A30739
:100E1000088519852A853B85601B710B820B930B16
:100E20000C811D812E813F81601771078207930716
:100E300020F38FEF9FEFDF91CF911F910F910895D6
:100E4000AF92BF92CF92DF92EF92FF920F931F93D8
:100E5000CF93DF935C017B018B01040F151FEB0126
:100E60006E01CE18DF08C017D10739F0C5010E9406
:100E7000F20697FD02C08993F3CFC601DF91CF91AF
:100E80001F910F91FF90EF90DF90CF90BF90AF90A8
:100E9000089508950E940D080E9449070E94350197
:100EA000C4E4D5E00E9449042097E1F30E94440580
:100EB000F9CF1F920F920FB60F9211242F933F93E9
:100EC0008F939F93AF93BF9380913B0290913C028D
:100ED000A0913D02B0913E0230913A0226E0230FEC
:100EE0002D3758F50296A11DB11D20933A0280932B
:100EF0003B0290933C02A0933D02B0933E0280914E
:100F00003F0290914002A0914102B09142020196AD
:100F1000A11DB11D80933F0290934002A093410216
:100F2000B0934202BF91AF919F918F913F912F91CA
:100F30000F900FBE0F901F90189529E8230F03966E
:100F4000A11DB11DD2CF2FB7F89460913B027091D3
:100F50003C0280913D0290913E022FBF08953FB721
:100F6000F89480913F0290914002A0914102B0918B
:100F7000420226B5A89B05C02F3F19F00196A11D7E
:100F8000B11D3FBFBA2FA92F982F8827BC01CD01D3
:100F9000620F711D811D911D43E0660F771F881F31
:100FA000991F4A95D1F708958F929F92AF92BF9261
:100FB000CF92DF92EF92FF926B017C010E94AF070C
:100FC0004B015C01C114D104E104F104E9F00E9479
:100FD00004090E94AF07681979098A099B09683ECC
:100FE00073408105910570F321E0C21AD108E10830
:100FF000F10888EE880E83E0981EA11CB11CC11474
:10100000D104E104F10429F7FF90EF90DF90CF9035
:10101000BF90AF909F908F900895789484B5826030
:1010200084BD84B5816084BD85B5826085BD85B58C
:10103000816085BDEEE6F0E0808181608083E1E83B
:10104000F0E0108280818260808380818160808373
:10105000E0E8F0E0808181608083E1EBF0E0808176
:1010600084608083E0EBF0E0808181608083EAE748
:10107000F0E08081846080838081826080838081D1
:101080008E7F80838081806880831092C100089564
:10109000843081F028F4823099F08330A9F00895EB
:1010A0008830A9F08930C9F08530B1F48091800092
:1010B0008F7D03C0809180008F778093800008959A
:1010C00084B58F7784BD089584B58F7DFBCF8091E3
:1010D000B0008F778093B00008958091B0008F7D2D
:1010E000F9CFCF93DF9390E0FC01E158FF4F2491BB
:1010F0008A569F4FFC0184918823C9F090E0880FA5
:10110000991FFC01EF53FF4FA591B491FC01E954E5
:10111000FF4FC591D49161110DC09FB7F8948C9188
:10112000209582238C938881282328839FBFDF9179
:10113000CF910895623051F49FB7F8943C91822F7B
:10114000809583238C93E8812E2BEFCF8FB7F89473
:10115000EC912E2B2C938FBFEACF1F93CF93DF936D
:10116000282F30E0F901E859FF4F8491F901E15847
:10117000FF4FD491F901EA56FF4FC491CC23A9F057
:10118000162F81110E944808EC2FF0E0EE0FFF1F90
:10119000E954FF4FA591B4918FB7F894EC911111D8
:1011A00008C0D095DE23DC938FBFDF91CF911F91D4
:1011B0000895DE2BF8CFCF93DF93282F30E0F9018D
:1011C000E859FF4F8491F901E158FF4FD491F9019B
:1011D000EA56FF4FC491CC23A1F081110E94480828
:1011E000EC2FF0E0EE0FFF1FE355FF4FA591B491F8
:1011F000EC91ED2381E090E009F480E0DF91CF9164
:10120000089580E090E0FACF0895A1E21A2EAA1B7B
:10121000BB1BFD010DC0AA1FBB1FEE1FFF1FA217A6
:10122000B307E407F50720F0A21BB30BE40BF50BA3
:10123000661F771F881F991F1A9469F7609570952C
:10124000809590959B01AC01BD01CF010895052EBD
:1012500097FB1EF400940E943E0957FD07D00E94A0
:10126000050907FC03D04EF40C943E0950954095B7
:10127000309521953F4F4F4F5F4F08959095809542
:10128000709561957F4F8F4F9F4F0895EE0FFF1F11
:101290000590F491E02D099410E0C8E6D0E004C078
:1012A000FE010E9446092196C936D107C9F7F89474
:0212B000FFCF6E
:1012B2001B010006A1010000000000010203040559
:1012C200060708090A0B08000700060005002B2D77
:1012D2003D05001DF1FF5B0506159A02E7030000BC
:1012E20000005A04C506B604B904B9045904000042
:0E12F20000009305C50616053005220573059C
:00000001FF
